{
  "_format": "hh-sol-artifact-1",
  "contractName": "Game",
  "sourceName": "contracts/Game.sol",
  "abi": [
    {
      "inputs": [],
      "stateMutability": "nonpayable",
      "type": "constructor"
    },
    {
      "anonymous": false,
      "inputs": [
        {
          "indexed": false,
          "internalType": "uint256",
          "name": "_assetId",
          "type": "uint256"
        },
        {
          "indexed": false,
          "internalType": "uint256",
          "name": "_price",
          "type": "uint256"
        }
      ],
      "name": "Create",
      "type": "event"
    },
    {
      "anonymous": false,
      "inputs": [
        {
          "indexed": false,
          "internalType": "uint256",
          "name": "_assetId",
          "type": "uint256"
        },
        {
          "indexed": false,
          "internalType": "uint256",
          "name": "_oldPrice",
          "type": "uint256"
        },
        {
          "indexed": false,
          "internalType": "uint256",
          "name": "_newPrice",
          "type": "uint256"
        }
      ],
      "name": "PriceChange",
      "type": "event"
    },
    {
      "anonymous": false,
      "inputs": [
        {
          "indexed": true,
          "internalType": "address",
          "name": "from",
          "type": "address"
        },
        {
          "indexed": true,
          "internalType": "address",
          "name": "_recipient",
          "type": "address"
        },
        {
          "indexed": false,
          "internalType": "uint256",
          "name": "assetId",
          "type": "uint256"
        }
      ],
      "name": "Transfer",
      "type": "event"
    },
    {
      "inputs": [
        {
          "internalType": "address",
          "name": "_newAdmin",
          "type": "address"
        }
      ],
      "name": "addAdministrator",
      "outputs": [],
      "stateMutability": "nonpayable",
      "type": "function"
    },
    {
      "inputs": [
        {
          "internalType": "uint256",
          "name": "",
          "type": "uint256"
        }
      ],
      "name": "administrators",
      "outputs": [
        {
          "internalType": "address",
          "name": "",
          "type": "address"
        }
      ],
      "stateMutability": "view",
      "type": "function"
    },
    {
      "inputs": [
        {
          "internalType": "uint256",
          "name": "",
          "type": "uint256"
        }
      ],
      "name": "assets",
      "outputs": [
        {
          "internalType": "uint256",
          "name": "assetId",
          "type": "uint256"
        },
        {
          "internalType": "uint256",
          "name": "price",
          "type": "uint256"
        },
        {
          "internalType": "address",
          "name": "owner",
          "type": "address"
        }
      ],
      "stateMutability": "view",
      "type": "function"
    },
    {
      "inputs": [
        {
          "internalType": "uint256",
          "name": "_assetId",
          "type": "uint256"
        }
      ],
      "name": "buy",
      "outputs": [],
      "stateMutability": "payable",
      "type": "function"
    },
    {
      "inputs": [
        {
          "internalType": "uint256",
          "name": "_assetId",
          "type": "uint256"
        },
        {
          "internalType": "uint256",
          "name": "_newPrice",
          "type": "uint256"
        }
      ],
      "name": "changePrice",
      "outputs": [],
      "stateMutability": "nonpayable",
      "type": "function"
    },
    {
      "inputs": [
        {
          "internalType": "uint256",
          "name": "_assetId",
          "type": "uint256"
        },
        {
          "internalType": "uint256",
          "name": "_price",
          "type": "uint256"
        }
      ],
      "name": "createAsset",
      "outputs": [],
      "stateMutability": "nonpayable",
      "type": "function"
    },
    {
      "inputs": [
        {
          "internalType": "address",
          "name": "_recipient",
          "type": "address"
        },
        {
          "internalType": "uint256",
          "name": "_assetId",
          "type": "uint256"
        }
      ],
      "name": "transfer",
      "outputs": [],
      "stateMutability": "nonpayable",
      "type": "function"
    }
  ],
  "bytecode": "0x608060405234801561001057600080fd5b506001339080600181540180825580915050600190039060005260206000200160009091909190916101000a81548173ffffffffffffffffffffffffffffffffffffffff021916908373ffffffffffffffffffffffffffffffffffffffff160217905550611500806100836000396000f3fe6080604052600436106100705760003560e01c8063cf35bdd01161004e578063cf35bdd0146100f0578063d89d15101461012f578063d96a094a1461016c578063de39e5fe1461018857610070565b8063a9059cbb14610075578063b3de019c1461009e578063c9991176146100c7575b600080fd5b34801561008157600080fd5b5061009c60048036038101906100979190610eee565b6101b1565b005b3480156100aa57600080fd5b506100c560048036038101906100c09190610f2e565b610467565b005b3480156100d357600080fd5b506100ee60048036038101906100e99190610f6e565b610630565b005b3480156100fc57600080fd5b5061011760048036038101906101129190610f9b565b610846565b60405161012693929190610fe6565b60405180910390f35b34801561013b57600080fd5b5061015660048036038101906101519190610f9b565b6108a0565b604051610163919061101d565b60405180910390f35b61018660048036038101906101819190610f9b565b6108df565b005b34801561019457600080fd5b506101af60048036038101906101aa9190610f2e565b610c12565b005b6000805b60018054905081101561024f573373ffffffffffffffffffffffffffffffffffffffff16600182815481106101ed576101ec611038565b5b9060005260206000200160009054906101000a900473ffffffffffffffffffffffffffffffffffffffff1673ffffffffffffffffffffffffffffffffffffffff160361023c576001915061024f565b808061024790611096565b9150506101b5565b5080610290576040517f08c379a00000000000000000000000000000000000000000000000000000000081526004016102879061113b565b60405180910390fd5b60008061029c84610de8565b8092508193505050806102e4576040517f08c379a00000000000000000000000000000000000000000000000000000000081526004016102db906111a7565b60405180910390fd5b3373ffffffffffffffffffffffffffffffffffffffff166000838154811061030f5761030e611038565b5b906000526020600020906003020160020160009054906101000a900473ffffffffffffffffffffffffffffffffffffffff1673ffffffffffffffffffffffffffffffffffffffff1614610397576040517f08c379a000000000000000000000000000000000000000000000000000000000815260040161038e90611213565b60405180910390fd5b84600083815481106103ac576103ab611038565b5b906000526020600020906003020160020160006101000a81548173ffffffffffffffffffffffffffffffffffffffff021916908373ffffffffffffffffffffffffffffffffffffffff1602179055508473ffffffffffffffffffffffffffffffffffffffff163373ffffffffffffffffffffffffffffffffffffffff167fddf252ad1be2c89b69c2b068fc378daa952ba7f163c4a11628f55a4df523b3ef866040516104589190611233565b60405180910390a35050505050565b6000805b600180549050811015610505573373ffffffffffffffffffffffffffffffffffffffff16600182815481106104a3576104a2611038565b5b9060005260206000200160009054906101000a900473ffffffffffffffffffffffffffffffffffffffff1673ffffffffffffffffffffffffffffffffffffffff16036104f25760019150610505565b80806104fd90611096565b91505061046b565b5080610546576040517f08c379a000000000000000000000000000000000000000000000000000000000815260040161053d9061113b565b60405180910390fd5b60008061055285610de8565b80925081935050508061059a576040517f08c379a0000000000000000000000000000000000000000000000000000000008152600401610591906111a7565b60405180910390fd5b60008083815481106105af576105ae611038565b5b906000526020600020906003020160010154905084600084815481106105d8576105d7611038565b5b9060005260206000209060030201600101819055507f046aa811b2923fd55b4ca06375b4045117d4584c66fc40880a8ab8ee32d88ed18682876040516106209392919061124e565b60405180910390a1505050505050565b6000805b6001805490508110156106ce573373ffffffffffffffffffffffffffffffffffffffff166001828154811061066c5761066b611038565b5b9060005260206000200160009054906101000a900473ffffffffffffffffffffffffffffffffffffffff1673ffffffffffffffffffffffffffffffffffffffff16036106bb57600191506106ce565b80806106c690611096565b915050610634565b508061070f576040517f08c379a00000000000000000000000000000000000000000000000000000000081526004016107069061113b565b60405180910390fd5b60005b6001805490508110156107de578273ffffffffffffffffffffffffffffffffffffffff166001828154811061074a57610749611038565b5b9060005260206000200160009054906101000a900473ffffffffffffffffffffffffffffffffffffffff1673ffffffffffffffffffffffffffffffffffffffff16036107cb576040517f08c379a00000000000000000000000000000000000000000000000000000000081526004016107c2906112f7565b60405180910390fd5b80806107d690611096565b915050610712565b506001829080600181540180825580915050600190039060005260206000200160009091909190916101000a81548173ffffffffffffffffffffffffffffffffffffffff021916908373ffffffffffffffffffffffffffffffffffffffff1602179055505050565b6000818154811061085657600080fd5b90600052602060002090600302016000915090508060000154908060010154908060020160009054906101000a900473ffffffffffffffffffffffffffffffffffffffff16905083565b600181815481106108b057600080fd5b906000526020600020016000915054906101000a900473ffffffffffffffffffffffffffffffffffffffff1681565b6000806108eb83610de8565b809250819350505080610933576040517f08c379a000000000000000000000000000000000000000000000000000000000815260040161092a906111a7565b60405180910390fd5b3373ffffffffffffffffffffffffffffffffffffffff166000838154811061095e5761095d611038565b5b906000526020600020906003020160020160009054906101000a900473ffffffffffffffffffffffffffffffffffffffff1673ffffffffffffffffffffffffffffffffffffffff16036109e6576040517f08c379a00000000000000000000000000000000000000000000000000000000081526004016109dd90611363565b60405180910390fd5b600082815481106109fa576109f9611038565b5b9060005260206000209060030201600101543414610a4d576040517f08c379a0000000000000000000000000000000000000000000000000000000008152600401610a44906113cf565b60405180910390fd5b6000808381548110610a6257610a61611038565b5b906000526020600020906003020160020160009054906101000a900473ffffffffffffffffffffffffffffffffffffffff1690503360008481548110610aab57610aaa611038565b5b906000526020600020906003020160020160006101000a81548173ffffffffffffffffffffffffffffffffffffffff021916908373ffffffffffffffffffffffffffffffffffffffff16021790555060008173ffffffffffffffffffffffffffffffffffffffff1634604051610b2090611420565b60006040518083038185875af1925050503d8060008114610b5d576040519150601f19603f3d011682016040523d82523d6000602084013e610b62565b606091505b5050905080610ba6576040517f08c379a0000000000000000000000000000000000000000000000000000000008152600401610b9d90611481565b60405180910390fd5b3373ffffffffffffffffffffffffffffffffffffffff168273ffffffffffffffffffffffffffffffffffffffff167fddf252ad1be2c89b69c2b068fc378daa952ba7f163c4a11628f55a4df523b3ef87604051610c039190611233565b60405180910390a35050505050565b6000805b600180549050811015610cb0573373ffffffffffffffffffffffffffffffffffffffff1660018281548110610c4e57610c4d611038565b5b9060005260206000200160009054906101000a900473ffffffffffffffffffffffffffffffffffffffff1673ffffffffffffffffffffffffffffffffffffffff1603610c9d5760019150610cb0565b8080610ca890611096565b915050610c16565b5080610cf1576040517f08c379a0000000000000000000000000000000000000000000000000000000008152600401610ce89061113b565b60405180910390fd5b600060405180606001604052808581526020018481526020013373ffffffffffffffffffffffffffffffffffffffff168152509080600181540180825580915050600190039060005260206000209060030201600090919091909150600082015181600001556020820151816001015560408201518160020160006101000a81548173ffffffffffffffffffffffffffffffffffffffff021916908373ffffffffffffffffffffffffffffffffffffffff16021790555050507f42ec2e0bdfc50680a77511c1785be2a2c2bfb3ee1159a2e6de27192eb12ec3b18383604051610ddb9291906114a1565b60405180910390a1505050565b60008060005b600080549050811015610e47578360008281548110610e1057610e0f611038565b5b90600052602060002090600302016000015403610e34578060019250925050610e50565b8080610e3f90611096565b915050610dee565b50600080915091505b915091565b600080fd5b600073ffffffffffffffffffffffffffffffffffffffff82169050919050565b6000610e8582610e5a565b9050919050565b610e9581610e7a565b8114610ea057600080fd5b50565b600081359050610eb281610e8c565b92915050565b6000819050919050565b610ecb81610eb8565b8114610ed657600080fd5b50565b600081359050610ee881610ec2565b92915050565b60008060408385031215610f0557610f04610e55565b5b6000610f1385828601610ea3565b9250506020610f2485828601610ed9565b9150509250929050565b60008060408385031215610f4557610f44610e55565b5b6000610f5385828601610ed9565b9250506020610f6485828601610ed9565b9150509250929050565b600060208284031215610f8457610f83610e55565b5b6000610f9284828501610ea3565b91505092915050565b600060208284031215610fb157610fb0610e55565b5b6000610fbf84828501610ed9565b91505092915050565b610fd181610eb8565b82525050565b610fe081610e7a565b82525050565b6000606082019050610ffb6000830186610fc8565b6110086020830185610fc8565b6110156040830184610fd7565b949350505050565b60006020820190506110326000830184610fd7565b92915050565b7f4e487b7100000000000000000000000000000000000000000000000000000000600052603260045260246000fd5b7f4e487b7100000000000000000000000000000000000000000000000000000000600052601160045260246000fd5b60006110a182610eb8565b91507fffffffffffffffffffffffffffffffffffffffffffffffffffffffffffffffff82036110d3576110d2611067565b5b600182019050919050565b600082825260208201905092915050565b7f41646d696e73206f6e6c79000000000000000000000000000000000000000000600082015250565b6000611125600b836110de565b9150611130826110ef565b602082019050919050565b6000602082019050818103600083015261115481611118565b9050919050565b7f4173736574206e6f7420666f756e640000000000000000000000000000000000600082015250565b6000611191600f836110de565b915061119c8261115b565b602082019050919050565b600060208201905081810360008301526111c081611184565b9050919050565b7f596f7520646f6e2774206f776e20746869732061737365740000000000000000600082015250565b60006111fd6018836110de565b9150611208826111c7565b602082019050919050565b6000602082019050818103600083015261122c816111f0565b9050919050565b60006020820190506112486000830184610fc8565b92915050565b60006060820190506112636000830186610fc8565b6112706020830185610fc8565b61127d6040830184610fc8565b949350505050565b7f4164647265737320697320616c726561647920616e2061646d696e697374726160008201527f746f720000000000000000000000000000000000000000000000000000000000602082015250565b60006112e16023836110de565b91506112ec82611285565b604082019050919050565b60006020820190508181036000830152611310816112d4565b9050919050565b7f596f7520616c7265616479206f776e2074686973206173736574000000000000600082015250565b600061134d601a836110de565b915061135882611317565b602082019050919050565b6000602082019050818103600083015261137c81611340565b9050919050565b7f496e636f72726563742045746865722076616c75650000000000000000000000600082015250565b60006113b96015836110de565b91506113c482611383565b602082019050919050565b600060208201905081810360008301526113e8816113ac565b9050919050565b600081905092915050565b50565b600061140a6000836113ef565b9150611415826113fa565b600082019050919050565b600061142b826113fd565b9150819050919050565b7f5472616e73666572206661696c65640000000000000000000000000000000000600082015250565b600061146b600f836110de565b915061147682611435565b602082019050919050565b6000602082019050818103600083015261149a8161145e565b9050919050565b60006040820190506114b66000830185610fc8565b6114c36020830184610fc8565b939250505056fea264697066735822122046d5de986a12da6d826b3589758a437a15bd33d7ab99640d433e90273d496e6b64736f6c63430008130033",
  "linkReferences": {},
  "deployedLinkReferences": {}
}